{
    "contractName": "MyTokenSale",
    "abi": [
        {
            "inputs": [
                {
                    "internalType": "uint256",
                    "name": "Rate",
                    "type": "uint256"
                },
                {
                    "internalType": "address payable",
                    "name": "Wallet",
                    "type": "address"
                },
                {
                    "internalType": "contract IERC20",
                    "name": "Token",
                    "type": "address"
                },
                {
                    "internalType": "contract KycContract",
                    "name": "_kyc",
                    "type": "address"
                }
            ],
            "stateMutability": "nonpayable",
            "type": "constructor"
        },
        {
            "anonymous": false,
            "inputs": [
                {
                    "indexed": true,
                    "internalType": "address",
                    "name": "previousOwner",
                    "type": "address"
                },
                {
                    "indexed": true,
                    "internalType": "address",
                    "name": "newOwner",
                    "type": "address"
                }
            ],
            "name": "OwnershipTransferred",
            "type": "event"
        },
        {
            "anonymous": false,
            "inputs": [
                {
                    "indexed": true,
                    "internalType": "address",
                    "name": "purchaser",
                    "type": "address"
                },
                {
                    "indexed": true,
                    "internalType": "address",
                    "name": "beneficiary",
                    "type": "address"
                },
                {
                    "indexed": false,
                    "internalType": "uint256",
                    "name": "value",
                    "type": "uint256"
                },
                {
                    "indexed": false,
                    "internalType": "uint256",
                    "name": "amount",
                    "type": "uint256"
                }
            ],
            "name": "TokensPurchased",
            "type": "event"
        },
        {
            "inputs": [
                {
                    "internalType": "address",
                    "name": "_addr",
                    "type": "address"
                }
            ],
            "name": "SetKycCompleted",
            "outputs": [],
            "stateMutability": "nonpayable",
            "type": "function"
        },
        {
            "inputs": [
                {
                    "internalType": "address",
                    "name": "_addr",
                    "type": "address"
                }
            ],
            "name": "SetKycRevoked",
            "outputs": [],
            "stateMutability": "nonpayable",
            "type": "function"
        },
        {
            "inputs": [
                {
                    "internalType": "address",
                    "name": "beneficiary",
                    "type": "address"
                }
            ],
            "name": "buyTokens",
            "outputs": [],
            "stateMutability": "payable",
            "type": "function",
            "payable": true
        },
        {
            "inputs": [
                {
                    "internalType": "address",
                    "name": "_addr",
                    "type": "address"
                }
            ],
            "name": "kycCompleted",
            "outputs": [
                {
                    "internalType": "bool",
                    "name": "",
                    "type": "bool"
                }
            ],
            "stateMutability": "view",
            "type": "function",
            "constant": true
        },
        {
            "inputs": [],
            "name": "owner",
            "outputs": [
                {
                    "internalType": "address",
                    "name": "",
                    "type": "address"
                }
            ],
            "stateMutability": "view",
            "type": "function",
            "constant": true
        },
        {
            "inputs": [],
            "name": "rate",
            "outputs": [
                {
                    "internalType": "uint256",
                    "name": "",
                    "type": "uint256"
                }
            ],
            "stateMutability": "view",
            "type": "function",
            "constant": true
        },
        {
            "inputs": [],
            "name": "renounceOwnership",
            "outputs": [],
            "stateMutability": "nonpayable",
            "type": "function"
        },
        {
            "inputs": [],
            "name": "token",
            "outputs": [
                {
                    "internalType": "contract IERC20",
                    "name": "",
                    "type": "address"
                }
            ],
            "stateMutability": "view",
            "type": "function",
            "constant": true
        },
        {
            "inputs": [
                {
                    "internalType": "address",
                    "name": "newOwner",
                    "type": "address"
                }
            ],
            "name": "transferOwnership",
            "outputs": [],
            "stateMutability": "nonpayable",
            "type": "function"
        },
        {
            "inputs": [],
            "name": "wallet",
            "outputs": [
                {
                    "internalType": "address payable",
                    "name": "",
                    "type": "address"
                }
            ],
            "stateMutability": "view",
            "type": "function",
            "constant": true
        },
        {
            "inputs": [],
            "name": "weiRaised",
            "outputs": [
                {
                    "internalType": "uint256",
                    "name": "",
                    "type": "uint256"
                }
            ],
            "stateMutability": "view",
            "type": "function",
            "constant": true
        },
        {
            "stateMutability": "payable",
            "type": "receive",
            "payable": true
        }
    ],
    "bytecode": "0x60806040523480156200001157600080fd5b5060405162001c4538038062001c45833981810160405281019062000037919062000474565b83838360016000819055506000831162000088576040517f08c379a00000000000000000000000000000000000000000000000000000000081526004016200007f9062000547565b60405180910390fd5b600073ffffffffffffffffffffffffffffffffffffffff168273ffffffffffffffffffffffffffffffffffffffff1603620000fa576040517f08c379a0000000000000000000000000000000000000000000000000000000008152600401620000f190620005df565b60405180910390fd5b600073ffffffffffffffffffffffffffffffffffffffff168173ffffffffffffffffffffffffffffffffffffffff16036200016c576040517f08c379a0000000000000000000000000000000000000000000000000000000008152600401620001639062000677565b60405180910390fd5b8260038190555081600260006101000a81548173ffffffffffffffffffffffffffffffffffffffff021916908373ffffffffffffffffffffffffffffffffffffffff16021790555080600160006101000a81548173ffffffffffffffffffffffffffffffffffffffff021916908373ffffffffffffffffffffffffffffffffffffffff160217905550505050620002186200020c6200026360201b60201c565b6200026b60201b60201c565b80600760006101000a81548173ffffffffffffffffffffffffffffffffffffffff021916908373ffffffffffffffffffffffffffffffffffffffff1602179055505050505062000699565b600033905090565b6000600560009054906101000a900473ffffffffffffffffffffffffffffffffffffffff16905081600560006101000a81548173ffffffffffffffffffffffffffffffffffffffff021916908373ffffffffffffffffffffffffffffffffffffffff1602179055508173ffffffffffffffffffffffffffffffffffffffff168173ffffffffffffffffffffffffffffffffffffffff167f8be0079c531659141344cd1fd0a4f28419497f9722a3daafe3b4186f6b6457e060405160405180910390a35050565b600080fd5b6000819050919050565b6200034b8162000336565b81146200035757600080fd5b50565b6000815190506200036b8162000340565b92915050565b600073ffffffffffffffffffffffffffffffffffffffff82169050919050565b60006200039e8262000371565b9050919050565b620003b08162000391565b8114620003bc57600080fd5b50565b600081519050620003d081620003a5565b92915050565b6000620003e38262000371565b9050919050565b6000620003f782620003d6565b9050919050565b6200040981620003ea565b81146200041557600080fd5b50565b6000815190506200042981620003fe565b92915050565b60006200043c82620003d6565b9050919050565b6200044e816200042f565b81146200045a57600080fd5b50565b6000815190506200046e8162000443565b92915050565b6000806000806080858703121562000491576200049062000331565b5b6000620004a1878288016200035a565b9450506020620004b487828801620003bf565b9350506040620004c78782880162000418565b9250506060620004da878288016200045d565b91505092959194509250565b600082825260208201905092915050565b7f43726f776473616c653a20726174652069732030000000000000000000000000600082015250565b60006200052f601483620004e6565b91506200053c82620004f7565b602082019050919050565b60006020820190508181036000830152620005628162000520565b9050919050565b7f43726f776473616c653a2077616c6c657420697320746865207a65726f20616460008201527f6472657373000000000000000000000000000000000000000000000000000000602082015250565b6000620005c7602583620004e6565b9150620005d48262000569565b604082019050919050565b60006020820190508181036000830152620005fa81620005b8565b9050919050565b7f43726f776473616c653a20746f6b656e20697320746865207a65726f2061646460008201527f7265737300000000000000000000000000000000000000000000000000000000602082015250565b60006200065f602483620004e6565b91506200066c8262000601565b604082019050919050565b60006020820190508181036000830152620006928162000650565b9050919050565b61159c80620006a96000396000f3fe6080604052600436106100a05760003560e01c80638da5cb5b116100645780638da5cb5b1461017d578063df235fe4146101a8578063ec8ac4d8146101e5578063f1575e2114610201578063f2fde38b1461022a578063fc0c546a14610253576100b7565b80632c4e722e146100bc5780634042b66f146100e7578063521eb27314610112578063715018a61461013d5780637c5d580a14610154576100b7565b366100b7576100b56100b061027e565b610286565b005b600080fd5b3480156100c857600080fd5b506100d16103ab565b6040516100de9190610c78565b60405180910390f35b3480156100f357600080fd5b506100fc6103b5565b6040516101099190610c78565b60405180910390f35b34801561011e57600080fd5b506101276103bf565b6040516101349190610cd4565b60405180910390f35b34801561014957600080fd5b506101526103e9565b005b34801561016057600080fd5b5061017b60048036038101906101769190610d32565b6103fd565b005b34801561018957600080fd5b50610192610460565b60405161019f9190610d6e565b60405180910390f35b3480156101b457600080fd5b506101cf60048036038101906101ca9190610d32565b61048a565b6040516101dc9190610da4565b60405180910390f35b6101ff60048036038101906101fa9190610d32565b610286565b005b34801561020d57600080fd5b5061022860048036038101906102239190610d32565b6104e0565b005b34801561023657600080fd5b50610251600480360381019061024c9190610d32565b610543565b005b34801561025f57600080fd5b506102686105c6565b6040516102759190610e1e565b60405180910390f35b600033905090565b6002600054036102cb576040517f08c379a00000000000000000000000000000000000000000000000000000000081526004016102c290610e96565b60405180910390fd5b600260008190555060003490506102e282826105f0565b60006102ed82610646565b90506103048260045461066490919063ffffffff16565b600481905550610314838261067a565b8273ffffffffffffffffffffffffffffffffffffffff1661033361027e565b73ffffffffffffffffffffffffffffffffffffffff167f6faf93231a456e552dbc9961f58d9713ee4f2e69d15f1975b050ef0911053a7b848460405161037a929190610eb6565b60405180910390a361038c8383610688565b61039461068c565b61039e83836106f7565b5050600160008190555050565b6000600354905090565b6000600454905090565b6000600260009054906101000a900473ffffffffffffffffffffffffffffffffffffffff16905090565b6103f16106fb565b6103fb6000610779565b565b6104056106fb565b6000600660008373ffffffffffffffffffffffffffffffffffffffff1673ffffffffffffffffffffffffffffffffffffffff16815260200190815260200160002060006101000a81548160ff02191690831515021790555050565b6000600560009054906101000a900473ffffffffffffffffffffffffffffffffffffffff16905090565b6000600660008373ffffffffffffffffffffffffffffffffffffffff1673ffffffffffffffffffffffffffffffffffffffff16815260200190815260200160002060009054906101000a900460ff169050919050565b6104e86106fb565b6001600660008373ffffffffffffffffffffffffffffffffffffffff1673ffffffffffffffffffffffffffffffffffffffff16815260200190815260200160002060006101000a81548160ff02191690831515021790555050565b61054b6106fb565b600073ffffffffffffffffffffffffffffffffffffffff168173ffffffffffffffffffffffffffffffffffffffff16036105ba576040517f08c379a00000000000000000000000000000000000000000000000000000000081526004016105b190610f51565b60405180910390fd5b6105c381610779565b50565b6000600160009054906101000a900473ffffffffffffffffffffffffffffffffffffffff16905090565b6105fa828261083f565b6106033361048a565b610642576040517f08c379a000000000000000000000000000000000000000000000000000000000815260040161063990610fe3565b60405180910390fd5b5050565b600061065d600354836108f590919063ffffffff16565b9050919050565b600081836106729190611032565b905092915050565b610684828261090b565b5050565b5050565b600260009054906101000a900473ffffffffffffffffffffffffffffffffffffffff1673ffffffffffffffffffffffffffffffffffffffff166108fc349081150290604051600060405180830381858888f193505050501580156106f4573d6000803e3d6000fd5b50565b5050565b61070361027e565b73ffffffffffffffffffffffffffffffffffffffff16610721610460565b73ffffffffffffffffffffffffffffffffffffffff1614610777576040517f08c379a000000000000000000000000000000000000000000000000000000000815260040161076e906110d4565b60405180910390fd5b565b6000600560009054906101000a900473ffffffffffffffffffffffffffffffffffffffff16905081600560006101000a81548173ffffffffffffffffffffffffffffffffffffffff021916908373ffffffffffffffffffffffffffffffffffffffff1602179055508173ffffffffffffffffffffffffffffffffffffffff168173ffffffffffffffffffffffffffffffffffffffff167f8be0079c531659141344cd1fd0a4f28419497f9722a3daafe3b4186f6b6457e060405160405180910390a35050565b600073ffffffffffffffffffffffffffffffffffffffff168273ffffffffffffffffffffffffffffffffffffffff16036108ae576040517f08c379a00000000000000000000000000000000000000000000000000000000081526004016108a590611166565b60405180910390fd5b600081036108f1576040517f08c379a00000000000000000000000000000000000000000000000000000000081526004016108e8906111d2565b60405180910390fd5b5050565b6000818361090391906111f2565b905092915050565b6109588282600160009054906101000a900473ffffffffffffffffffffffffffffffffffffffff1673ffffffffffffffffffffffffffffffffffffffff1661095c9092919063ffffffff16565b5050565b6109dd8363a9059cbb60e01b848460405160240161097b92919061124c565b604051602081830303815290604052907bffffffffffffffffffffffffffffffffffffffffffffffffffffffff19166020820180517bffffffffffffffffffffffffffffffffffffffffffffffffffffffff83818316178352505050506109e2565b505050565b6000610a44826040518060400160405280602081526020017f5361666545524332303a206c6f772d6c6576656c2063616c6c206661696c65648152508573ffffffffffffffffffffffffffffffffffffffff16610aa99092919063ffffffff16565b9050600081511115610aa45780806020019051810190610a6491906112a1565b610aa3576040517f08c379a0000000000000000000000000000000000000000000000000000000008152600401610a9a90611340565b60405180910390fd5b5b505050565b6060610ab88484600085610ac1565b90509392505050565b606082471015610b06576040517f08c379a0000000000000000000000000000000000000000000000000000000008152600401610afd906113d2565b60405180910390fd5b610b0f85610bd5565b610b4e576040517f08c379a0000000000000000000000000000000000000000000000000000000008152600401610b459061143e565b60405180910390fd5b6000808673ffffffffffffffffffffffffffffffffffffffff168587604051610b7791906114d8565b60006040518083038185875af1925050503d8060008114610bb4576040519150601f19603f3d011682016040523d82523d6000602084013e610bb9565b606091505b5091509150610bc9828286610bf8565b92505050949350505050565b6000808273ffffffffffffffffffffffffffffffffffffffff163b119050919050565b60608315610c0857829050610c58565b600083511115610c1b5782518084602001fd5b816040517f08c379a0000000000000000000000000000000000000000000000000000000008152600401610c4f9190611544565b60405180910390fd5b9392505050565b6000819050919050565b610c7281610c5f565b82525050565b6000602082019050610c8d6000830184610c69565b92915050565b600073ffffffffffffffffffffffffffffffffffffffff82169050919050565b6000610cbe82610c93565b9050919050565b610cce81610cb3565b82525050565b6000602082019050610ce96000830184610cc5565b92915050565b600080fd5b6000610cff82610c93565b9050919050565b610d0f81610cf4565b8114610d1a57600080fd5b50565b600081359050610d2c81610d06565b92915050565b600060208284031215610d4857610d47610cef565b5b6000610d5684828501610d1d565b91505092915050565b610d6881610cf4565b82525050565b6000602082019050610d836000830184610d5f565b92915050565b60008115159050919050565b610d9e81610d89565b82525050565b6000602082019050610db96000830184610d95565b92915050565b6000819050919050565b6000610de4610ddf610dda84610c93565b610dbf565b610c93565b9050919050565b6000610df682610dc9565b9050919050565b6000610e0882610deb565b9050919050565b610e1881610dfd565b82525050565b6000602082019050610e336000830184610e0f565b92915050565b600082825260208201905092915050565b7f5265656e7472616e637947756172643a207265656e7472616e742063616c6c00600082015250565b6000610e80601f83610e39565b9150610e8b82610e4a565b602082019050919050565b60006020820190508181036000830152610eaf81610e73565b9050919050565b6000604082019050610ecb6000830185610c69565b610ed86020830184610c69565b9392505050565b7f4f776e61626c653a206e6577206f776e657220697320746865207a65726f206160008201527f6464726573730000000000000000000000000000000000000000000000000000602082015250565b6000610f3b602683610e39565b9150610f4682610edf565b604082019050919050565b60006020820190508181036000830152610f6a81610f2e565b9050919050565b7f4b5943206e6f7420636f6d706c657465642c205075726368617365206e6f742060008201527f616c6c6f77656400000000000000000000000000000000000000000000000000602082015250565b6000610fcd602783610e39565b9150610fd882610f71565b604082019050919050565b60006020820190508181036000830152610ffc81610fc0565b9050919050565b7f4e487b7100000000000000000000000000000000000000000000000000000000600052601160045260246000fd5b600061103d82610c5f565b915061104883610c5f565b9250827fffffffffffffffffffffffffffffffffffffffffffffffffffffffffffffffff0382111561107d5761107c611003565b5b828201905092915050565b7f4f776e61626c653a2063616c6c6572206973206e6f7420746865206f776e6572600082015250565b60006110be602083610e39565b91506110c982611088565b602082019050919050565b600060208201905081810360008301526110ed816110b1565b9050919050565b7f43726f776473616c653a2062656e656669636961727920697320746865207a6560008201527f726f206164647265737300000000000000000000000000000000000000000000602082015250565b6000611150602a83610e39565b915061115b826110f4565b604082019050919050565b6000602082019050818103600083015261117f81611143565b9050919050565b7f43726f776473616c653a20776569416d6f756e74206973203000000000000000600082015250565b60006111bc601983610e39565b91506111c782611186565b602082019050919050565b600060208201905081810360008301526111eb816111af565b9050919050565b60006111fd82610c5f565b915061120883610c5f565b9250817fffffffffffffffffffffffffffffffffffffffffffffffffffffffffffffffff048311821515161561124157611240611003565b5b828202905092915050565b60006040820190506112616000830185610d5f565b61126e6020830184610c69565b9392505050565b61127e81610d89565b811461128957600080fd5b50565b60008151905061129b81611275565b92915050565b6000602082840312156112b7576112b6610cef565b5b60006112c58482850161128c565b91505092915050565b7f5361666545524332303a204552433230206f7065726174696f6e20646964206e60008201527f6f74207375636365656400000000000000000000000000000000000000000000602082015250565b600061132a602a83610e39565b9150611335826112ce565b604082019050919050565b600060208201905081810360008301526113598161131d565b9050919050565b7f416464726573733a20696e73756666696369656e742062616c616e636520666f60008201527f722063616c6c0000000000000000000000000000000000000000000000000000602082015250565b60006113bc602683610e39565b91506113c782611360565b604082019050919050565b600060208201905081810360008301526113eb816113af565b9050919050565b7f416464726573733a2063616c6c20746f206e6f6e2d636f6e7472616374000000600082015250565b6000611428601d83610e39565b9150611433826113f2565b602082019050919050565b600060208201905081810360008301526114578161141b565b9050919050565b600081519050919050565b600081905092915050565b60005b83811015611492578082015181840152602081019050611477565b838111156114a1576000848401525b50505050565b60006114b28261145e565b6114bc8185611469565b93506114cc818560208601611474565b80840191505092915050565b60006114e482846114a7565b915081905092915050565b600081519050919050565b6000601f19601f8301169050919050565b6000611516826114ef565b6115208185610e39565b9350611530818560208601611474565b611539816114fa565b840191505092915050565b6000602082019050818103600083015261155e818461150b565b90509291505056fea264697066735822122032107fb2d7eed63cc168ad9e91e95b1b9cc865fea594587ad7b445e2255dbe8564736f6c634300080f0033",
    "immutableReferences": {},
    "source": "// SPDX-License-Identifier: MIT\r\npragma solidity ^0.8.1;\r\n\r\nimport \"./Crowdsale.sol\";\r\nimport \"./KycContract.sol\";\r\n\r\ncontract MyTokenSale is Crowdsale, KycContract {\r\n    KycContract kyc;\r\n\r\n    constructor (\r\n        uint256 Rate,\r\n        address payable Wallet,\r\n        IERC20 Token,\r\n        KycContract _kyc\r\n    )\r\n        Crowdsale(Rate, Wallet, Token)\r\n    {\r\n        kyc = _kyc;\r\n    }\r\n\r\n    function _preValidatePurchase(address beneficiary, uint256 weiAmount) internal view override{\r\n        super._preValidatePurchase(beneficiary, weiAmount);\r\n        require(kycCompleted(msg.sender), \"KYC not completed, Purchase not allowed\");\r\n    }\r\n}",
    "sourcePath": "C:/Users/LENOVO/Desktop/dev-isonu/tokenization/contracts/MyTokenSale.sol",
    "compiler": {
        "name": "solc",
        "version": "0.8.15+commit.e14f2714.Emscripten.clang"
    },
    "schemaVersion": "3.4.1",
    "updatedAt": "2022-07-27T18:14:23.614Z",
    "networkType": "ethereum",
    "devdoc": {
        "kind": "dev",
        "methods": {
            "buyTokens(address)": {
                "details": "low level token purchase ***DO NOT OVERRIDE*** This function has a non-reentrancy guard, so it shouldn't be called by another `nonReentrant` function.",
                "params": {
                    "beneficiary": "Recipient of the token purchase"
                }
            },
            "owner()": {
                "details": "Returns the address of the current owner."
            },
            "rate()": {
                "returns": {
                    "_0": "the number of token units a buyer gets per wei."
                }
            },
            "renounceOwnership()": {
                "details": "Leaves the contract without owner. It will not be possible to call `onlyOwner` functions anymore. Can only be called by the current owner. NOTE: Renouncing ownership will leave the contract without an owner, thereby removing any functionality that is only available to the owner."
            },
            "token()": {
                "returns": {
                    "_0": "the token being sold."
                }
            },
            "transferOwnership(address)": {
                "details": "Transfers ownership of the contract to a new account (`newOwner`). Can only be called by the current owner."
            },
            "wallet()": {
                "returns": {
                    "_0": "the address where funds are collected."
                }
            },
            "weiRaised()": {
                "returns": {
                    "_0": "the amount of wei raised."
                }
            }
        },
        "version": 1
    },
    "userdoc": {
        "events": {
            "TokensPurchased(address,address,uint256,uint256)": {
                "notice": "Event for token purchase logging"
            }
        },
        "kind": "user",
        "methods": {},
        "version": 1
    }
}