{
  "contractName": "MyTokenSale",
  "abi": [
    {
      "inputs": [
        {
          "internalType": "uint256",
          "name": "Rate",
          "type": "uint256"
        },
        {
          "internalType": "address payable",
          "name": "Wallet",
          "type": "address"
        },
        {
          "internalType": "contract IERC20",
          "name": "Token",
          "type": "address"
        },
        {
          "internalType": "contract KycContract",
          "name": "_kyc",
          "type": "address"
        }
      ],
      "stateMutability": "nonpayable",
      "type": "constructor"
    },
    {
      "anonymous": false,
      "inputs": [
        {
          "indexed": true,
          "internalType": "address",
          "name": "previousOwner",
          "type": "address"
        },
        {
          "indexed": true,
          "internalType": "address",
          "name": "newOwner",
          "type": "address"
        }
      ],
      "name": "OwnershipTransferred",
      "type": "event"
    },
    {
      "anonymous": false,
      "inputs": [
        {
          "indexed": true,
          "internalType": "address",
          "name": "purchaser",
          "type": "address"
        },
        {
          "indexed": true,
          "internalType": "address",
          "name": "beneficiary",
          "type": "address"
        },
        {
          "indexed": false,
          "internalType": "uint256",
          "name": "value",
          "type": "uint256"
        },
        {
          "indexed": false,
          "internalType": "uint256",
          "name": "amount",
          "type": "uint256"
        }
      ],
      "name": "TokensPurchased",
      "type": "event"
    },
    {
      "inputs": [
        {
          "internalType": "address",
          "name": "_addr",
          "type": "address"
        }
      ],
      "name": "KycCompleted",
      "outputs": [
        {
          "internalType": "bool",
          "name": "",
          "type": "bool"
        }
      ],
      "stateMutability": "view",
      "type": "function",
      "constant": true
    },
    {
      "inputs": [
        {
          "internalType": "address",
          "name": "_addr",
          "type": "address"
        }
      ],
      "name": "SetKycCompleted",
      "outputs": [],
      "stateMutability": "nonpayable",
      "type": "function"
    },
    {
      "inputs": [
        {
          "internalType": "address",
          "name": "_addr",
          "type": "address"
        }
      ],
      "name": "SetKycRevoked",
      "outputs": [],
      "stateMutability": "nonpayable",
      "type": "function"
    },
    {
      "inputs": [
        {
          "internalType": "address",
          "name": "beneficiary",
          "type": "address"
        }
      ],
      "name": "buyTokens",
      "outputs": [],
      "stateMutability": "payable",
      "type": "function",
      "payable": true
    },
    {
      "inputs": [],
      "name": "owner",
      "outputs": [
        {
          "internalType": "address",
          "name": "",
          "type": "address"
        }
      ],
      "stateMutability": "view",
      "type": "function",
      "constant": true
    },
    {
      "inputs": [],
      "name": "rate",
      "outputs": [
        {
          "internalType": "uint256",
          "name": "",
          "type": "uint256"
        }
      ],
      "stateMutability": "view",
      "type": "function",
      "constant": true
    },
    {
      "inputs": [],
      "name": "renounceOwnership",
      "outputs": [],
      "stateMutability": "nonpayable",
      "type": "function"
    },
    {
      "inputs": [],
      "name": "token",
      "outputs": [
        {
          "internalType": "contract IERC20",
          "name": "",
          "type": "address"
        }
      ],
      "stateMutability": "view",
      "type": "function",
      "constant": true
    },
    {
      "inputs": [
        {
          "internalType": "address",
          "name": "newOwner",
          "type": "address"
        }
      ],
      "name": "transferOwnership",
      "outputs": [],
      "stateMutability": "nonpayable",
      "type": "function"
    },
    {
      "inputs": [],
      "name": "wallet",
      "outputs": [
        {
          "internalType": "address payable",
          "name": "",
          "type": "address"
        }
      ],
      "stateMutability": "view",
      "type": "function",
      "constant": true
    },
    {
      "inputs": [],
      "name": "weiRaised",
      "outputs": [
        {
          "internalType": "uint256",
          "name": "",
          "type": "uint256"
        }
      ],
      "stateMutability": "view",
      "type": "function",
      "constant": true
    },
    {
      "stateMutability": "payable",
      "type": "receive",
      "payable": true
    }
  ],
  "bytecode": "0x60806040523480156200001157600080fd5b5060405162001cd838038062001cd8833981810160405281019062000037919062000474565b83838360016000819055506000831162000088576040517f08c379a00000000000000000000000000000000000000000000000000000000081526004016200007f9062000547565b60405180910390fd5b600073ffffffffffffffffffffffffffffffffffffffff168273ffffffffffffffffffffffffffffffffffffffff1603620000fa576040517f08c379a0000000000000000000000000000000000000000000000000000000008152600401620000f190620005df565b60405180910390fd5b600073ffffffffffffffffffffffffffffffffffffffff168173ffffffffffffffffffffffffffffffffffffffff16036200016c576040517f08c379a0000000000000000000000000000000000000000000000000000000008152600401620001639062000677565b60405180910390fd5b8260038190555081600260006101000a81548173ffffffffffffffffffffffffffffffffffffffff021916908373ffffffffffffffffffffffffffffffffffffffff16021790555080600160006101000a81548173ffffffffffffffffffffffffffffffffffffffff021916908373ffffffffffffffffffffffffffffffffffffffff160217905550505050620002186200020c6200026360201b60201c565b6200026b60201b60201c565b80600760006101000a81548173ffffffffffffffffffffffffffffffffffffffff021916908373ffffffffffffffffffffffffffffffffffffffff1602179055505050505062000699565b600033905090565b6000600560009054906101000a900473ffffffffffffffffffffffffffffffffffffffff16905081600560006101000a81548173ffffffffffffffffffffffffffffffffffffffff021916908373ffffffffffffffffffffffffffffffffffffffff1602179055508173ffffffffffffffffffffffffffffffffffffffff168173ffffffffffffffffffffffffffffffffffffffff167f8be0079c531659141344cd1fd0a4f28419497f9722a3daafe3b4186f6b6457e060405160405180910390a35050565b600080fd5b6000819050919050565b6200034b8162000336565b81146200035757600080fd5b50565b6000815190506200036b8162000340565b92915050565b600073ffffffffffffffffffffffffffffffffffffffff82169050919050565b60006200039e8262000371565b9050919050565b620003b08162000391565b8114620003bc57600080fd5b50565b600081519050620003d081620003a5565b92915050565b6000620003e38262000371565b9050919050565b6000620003f782620003d6565b9050919050565b6200040981620003ea565b81146200041557600080fd5b50565b6000815190506200042981620003fe565b92915050565b60006200043c82620003d6565b9050919050565b6200044e816200042f565b81146200045a57600080fd5b50565b6000815190506200046e8162000443565b92915050565b6000806000806080858703121562000491576200049062000331565b5b6000620004a1878288016200035a565b9450506020620004b487828801620003bf565b9350506040620004c78782880162000418565b9250506060620004da878288016200045d565b91505092959194509250565b600082825260208201905092915050565b7f43726f776473616c653a20726174652069732030000000000000000000000000600082015250565b60006200052f601483620004e6565b91506200053c82620004f7565b602082019050919050565b60006020820190508181036000830152620005628162000520565b9050919050565b7f43726f776473616c653a2077616c6c657420697320746865207a65726f20616460008201527f6472657373000000000000000000000000000000000000000000000000000000602082015250565b6000620005c7602583620004e6565b9150620005d48262000569565b604082019050919050565b60006020820190508181036000830152620005fa81620005b8565b9050919050565b7f43726f776473616c653a20746f6b656e20697320746865207a65726f2061646460008201527f7265737300000000000000000000000000000000000000000000000000000000602082015250565b60006200065f602483620004e6565b91506200066c8262000601565b604082019050919050565b60006020820190508181036000830152620006928162000650565b9050919050565b61162f80620006a96000396000f3fe6080604052600436106100a05760003560e01c80637c5d580a116100645780637c5d580a146101915780638da5cb5b146101ba578063ec8ac4d8146101e5578063f1575e2114610201578063f2fde38b1461022a578063fc0c546a14610253576100b7565b80632c4e722e146100bc5780632eb10fde146100e75780634042b66f14610124578063521eb2731461014f578063715018a61461017a576100b7565b366100b7576100b56100b061027e565b610286565b005b600080fd5b3480156100c857600080fd5b506100d16103ab565b6040516100de9190610d0b565b60405180910390f35b3480156100f357600080fd5b5061010e60048036038101906101099190610d89565b6103b5565b60405161011b9190610dd1565b60405180910390f35b34801561013057600080fd5b5061013961040b565b6040516101469190610d0b565b60405180910390f35b34801561015b57600080fd5b50610164610415565b6040516101719190610e0d565b60405180910390f35b34801561018657600080fd5b5061018f61043f565b005b34801561019d57600080fd5b506101b860048036038101906101b39190610d89565b610453565b005b3480156101c657600080fd5b506101cf6104b6565b6040516101dc9190610e37565b60405180910390f35b6101ff60048036038101906101fa9190610d89565b610286565b005b34801561020d57600080fd5b5061022860048036038101906102239190610d89565b6104e0565b005b34801561023657600080fd5b50610251600480360381019061024c9190610d89565b610543565b005b34801561025f57600080fd5b506102686105c6565b6040516102759190610eb1565b60405180910390f35b600033905090565b6002600054036102cb576040517f08c379a00000000000000000000000000000000000000000000000000000000081526004016102c290610f29565b60405180910390fd5b600260008190555060003490506102e282826105f0565b60006102ed826106d9565b9050610304826004546106f790919063ffffffff16565b600481905550610314838261070d565b8273ffffffffffffffffffffffffffffffffffffffff1661033361027e565b73ffffffffffffffffffffffffffffffffffffffff167f6faf93231a456e552dbc9961f58d9713ee4f2e69d15f1975b050ef0911053a7b848460405161037a929190610f49565b60405180910390a361038c838361071b565b61039461071f565b61039e838361078a565b5050600160008190555050565b6000600354905090565b6000600660008373ffffffffffffffffffffffffffffffffffffffff1673ffffffffffffffffffffffffffffffffffffffff16815260200190815260200160002060009054906101000a900460ff169050919050565b6000600454905090565b6000600260009054906101000a900473ffffffffffffffffffffffffffffffffffffffff16905090565b61044761078e565b610451600061080c565b565b61045b61078e565b6000600660008373ffffffffffffffffffffffffffffffffffffffff1673ffffffffffffffffffffffffffffffffffffffff16815260200190815260200160002060006101000a81548160ff02191690831515021790555050565b6000600560009054906101000a900473ffffffffffffffffffffffffffffffffffffffff16905090565b6104e861078e565b6001600660008373ffffffffffffffffffffffffffffffffffffffff1673ffffffffffffffffffffffffffffffffffffffff16815260200190815260200160002060006101000a81548160ff02191690831515021790555050565b61054b61078e565b600073ffffffffffffffffffffffffffffffffffffffff168173ffffffffffffffffffffffffffffffffffffffff16036105ba576040517f08c379a00000000000000000000000000000000000000000000000000000000081526004016105b190610fe4565b60405180910390fd5b6105c38161080c565b50565b6000600160009054906101000a900473ffffffffffffffffffffffffffffffffffffffff16905090565b6105fa82826108d2565b600760009054906101000a900473ffffffffffffffffffffffffffffffffffffffff1673ffffffffffffffffffffffffffffffffffffffff16632eb10fde336040518263ffffffff1660e01b81526004016106559190610e37565b602060405180830381865afa158015610672573d6000803e3d6000fd5b505050506040513d601f19601f820116820180604052508101906106969190611030565b6106d5576040517f08c379a00000000000000000000000000000000000000000000000000000000081526004016106cc906110cf565b60405180910390fd5b5050565b60006106f06003548361098890919063ffffffff16565b9050919050565b60008183610705919061111e565b905092915050565b610717828261099e565b5050565b5050565b600260009054906101000a900473ffffffffffffffffffffffffffffffffffffffff1673ffffffffffffffffffffffffffffffffffffffff166108fc349081150290604051600060405180830381858888f19350505050158015610787573d6000803e3d6000fd5b50565b5050565b61079661027e565b73ffffffffffffffffffffffffffffffffffffffff166107b46104b6565b73ffffffffffffffffffffffffffffffffffffffff161461080a576040517f08c379a0000000000000000000000000000000000000000000000000000000008152600401610801906111c0565b60405180910390fd5b565b6000600560009054906101000a900473ffffffffffffffffffffffffffffffffffffffff16905081600560006101000a81548173ffffffffffffffffffffffffffffffffffffffff021916908373ffffffffffffffffffffffffffffffffffffffff1602179055508173ffffffffffffffffffffffffffffffffffffffff168173ffffffffffffffffffffffffffffffffffffffff167f8be0079c531659141344cd1fd0a4f28419497f9722a3daafe3b4186f6b6457e060405160405180910390a35050565b600073ffffffffffffffffffffffffffffffffffffffff168273ffffffffffffffffffffffffffffffffffffffff1603610941576040517f08c379a000000000000000000000000000000000000000000000000000000000815260040161093890611252565b60405180910390fd5b60008103610984576040517f08c379a000000000000000000000000000000000000000000000000000000000815260040161097b906112be565b60405180910390fd5b5050565b6000818361099691906112de565b905092915050565b6109eb8282600160009054906101000a900473ffffffffffffffffffffffffffffffffffffffff1673ffffffffffffffffffffffffffffffffffffffff166109ef9092919063ffffffff16565b5050565b610a708363a9059cbb60e01b8484604051602401610a0e929190611338565b604051602081830303815290604052907bffffffffffffffffffffffffffffffffffffffffffffffffffffffff19166020820180517bffffffffffffffffffffffffffffffffffffffffffffffffffffffff8381831617835250505050610a75565b505050565b6000610ad7826040518060400160405280602081526020017f5361666545524332303a206c6f772d6c6576656c2063616c6c206661696c65648152508573ffffffffffffffffffffffffffffffffffffffff16610b3c9092919063ffffffff16565b9050600081511115610b375780806020019051810190610af79190611030565b610b36576040517f08c379a0000000000000000000000000000000000000000000000000000000008152600401610b2d906113d3565b60405180910390fd5b5b505050565b6060610b4b8484600085610b54565b90509392505050565b606082471015610b99576040517f08c379a0000000000000000000000000000000000000000000000000000000008152600401610b9090611465565b60405180910390fd5b610ba285610c68565b610be1576040517f08c379a0000000000000000000000000000000000000000000000000000000008152600401610bd8906114d1565b60405180910390fd5b6000808673ffffffffffffffffffffffffffffffffffffffff168587604051610c0a919061156b565b60006040518083038185875af1925050503d8060008114610c47576040519150601f19603f3d011682016040523d82523d6000602084013e610c4c565b606091505b5091509150610c5c828286610c8b565b92505050949350505050565b6000808273ffffffffffffffffffffffffffffffffffffffff163b119050919050565b60608315610c9b57829050610ceb565b600083511115610cae5782518084602001fd5b816040517f08c379a0000000000000000000000000000000000000000000000000000000008152600401610ce291906115d7565b60405180910390fd5b9392505050565b6000819050919050565b610d0581610cf2565b82525050565b6000602082019050610d206000830184610cfc565b92915050565b600080fd5b600073ffffffffffffffffffffffffffffffffffffffff82169050919050565b6000610d5682610d2b565b9050919050565b610d6681610d4b565b8114610d7157600080fd5b50565b600081359050610d8381610d5d565b92915050565b600060208284031215610d9f57610d9e610d26565b5b6000610dad84828501610d74565b91505092915050565b60008115159050919050565b610dcb81610db6565b82525050565b6000602082019050610de66000830184610dc2565b92915050565b6000610df782610d2b565b9050919050565b610e0781610dec565b82525050565b6000602082019050610e226000830184610dfe565b92915050565b610e3181610d4b565b82525050565b6000602082019050610e4c6000830184610e28565b92915050565b6000819050919050565b6000610e77610e72610e6d84610d2b565b610e52565b610d2b565b9050919050565b6000610e8982610e5c565b9050919050565b6000610e9b82610e7e565b9050919050565b610eab81610e90565b82525050565b6000602082019050610ec66000830184610ea2565b92915050565b600082825260208201905092915050565b7f5265656e7472616e637947756172643a207265656e7472616e742063616c6c00600082015250565b6000610f13601f83610ecc565b9150610f1e82610edd565b602082019050919050565b60006020820190508181036000830152610f4281610f06565b9050919050565b6000604082019050610f5e6000830185610cfc565b610f6b6020830184610cfc565b9392505050565b7f4f776e61626c653a206e6577206f776e657220697320746865207a65726f206160008201527f6464726573730000000000000000000000000000000000000000000000000000602082015250565b6000610fce602683610ecc565b9150610fd982610f72565b604082019050919050565b60006020820190508181036000830152610ffd81610fc1565b9050919050565b61100d81610db6565b811461101857600080fd5b50565b60008151905061102a81611004565b92915050565b60006020828403121561104657611045610d26565b5b60006110548482850161101b565b91505092915050565b7f4b5943206e6f7420636f6d706c657465642c205075726368617365206e6f742060008201527f616c6c6f77656400000000000000000000000000000000000000000000000000602082015250565b60006110b9602783610ecc565b91506110c48261105d565b604082019050919050565b600060208201905081810360008301526110e8816110ac565b9050919050565b7f4e487b7100000000000000000000000000000000000000000000000000000000600052601160045260246000fd5b600061112982610cf2565b915061113483610cf2565b9250827fffffffffffffffffffffffffffffffffffffffffffffffffffffffffffffffff03821115611169576111686110ef565b5b828201905092915050565b7f4f776e61626c653a2063616c6c6572206973206e6f7420746865206f776e6572600082015250565b60006111aa602083610ecc565b91506111b582611174565b602082019050919050565b600060208201905081810360008301526111d98161119d565b9050919050565b7f43726f776473616c653a2062656e656669636961727920697320746865207a6560008201527f726f206164647265737300000000000000000000000000000000000000000000602082015250565b600061123c602a83610ecc565b9150611247826111e0565b604082019050919050565b6000602082019050818103600083015261126b8161122f565b9050919050565b7f43726f776473616c653a20776569416d6f756e74206973203000000000000000600082015250565b60006112a8601983610ecc565b91506112b382611272565b602082019050919050565b600060208201905081810360008301526112d78161129b565b9050919050565b60006112e982610cf2565b91506112f483610cf2565b9250817fffffffffffffffffffffffffffffffffffffffffffffffffffffffffffffffff048311821515161561132d5761132c6110ef565b5b828202905092915050565b600060408201905061134d6000830185610e28565b61135a6020830184610cfc565b9392505050565b7f5361666545524332303a204552433230206f7065726174696f6e20646964206e60008201527f6f74207375636365656400000000000000000000000000000000000000000000602082015250565b60006113bd602a83610ecc565b91506113c882611361565b604082019050919050565b600060208201905081810360008301526113ec816113b0565b9050919050565b7f416464726573733a20696e73756666696369656e742062616c616e636520666f60008201527f722063616c6c0000000000000000000000000000000000000000000000000000602082015250565b600061144f602683610ecc565b915061145a826113f3565b604082019050919050565b6000602082019050818103600083015261147e81611442565b9050919050565b7f416464726573733a2063616c6c20746f206e6f6e2d636f6e7472616374000000600082015250565b60006114bb601d83610ecc565b91506114c682611485565b602082019050919050565b600060208201905081810360008301526114ea816114ae565b9050919050565b600081519050919050565b600081905092915050565b60005b8381101561152557808201518184015260208101905061150a565b83811115611534576000848401525b50505050565b6000611545826114f1565b61154f81856114fc565b935061155f818560208601611507565b80840191505092915050565b6000611577828461153a565b915081905092915050565b600081519050919050565b6000601f19601f8301169050919050565b60006115a982611582565b6115b38185610ecc565b93506115c3818560208601611507565b6115cc8161158d565b840191505092915050565b600060208201905081810360008301526115f1818461159e565b90509291505056fea264697066735822122054858068c9fe746b7b70cac46a8d2b880043c4fe0ff4c4fcf6f7ef1bcf3e094a64736f6c634300080f0033",
  "immutableReferences": {},
  "source": "// SPDX-License-Identifier: MIT\r\npragma solidity ^0.8.1;\r\n\r\nimport \"./Crowdsale.sol\";\r\nimport \"./KycContract.sol\";\r\n\r\ncontract MyTokenSale is Crowdsale, KycContract {\r\n    KycContract kyc;\r\n\r\n    constructor (\r\n        uint256 Rate,\r\n        address payable Wallet,\r\n        IERC20 Token,\r\n        KycContract _kyc\r\n    )\r\n        Crowdsale(Rate, Wallet, Token)\r\n    {\r\n        kyc = _kyc;\r\n    }\r\n\r\n    function _preValidatePurchase(address beneficiary, uint256 weiAmount) internal view override{\r\n        super._preValidatePurchase(beneficiary, weiAmount);\r\n        require(kyc.KycCompleted(msg.sender), \"KYC not completed, Purchase not allowed\");\r\n    }\r\n}",
  "sourcePath": "C:/Users/LENOVO/Desktop/dev-isonu/tokenization/contracts/MyTokenSale.sol",
  "compiler": {
    "name": "solc",
    "version": "0.8.15+commit.e14f2714.Emscripten.clang"
  },
  "schemaVersion": "3.4.1",
  "updatedAt": "2022-07-31T19:10:10.695Z",
  "networkType": "ethereum",
  "devdoc": {
    "kind": "dev",
    "methods": {
      "buyTokens(address)": {
        "details": "low level token purchase ***DO NOT OVERRIDE*** This function has a non-reentrancy guard, so it shouldn't be called by another `nonReentrant` function.",
        "params": {
          "beneficiary": "Recipient of the token purchase"
        }
      },
      "owner()": {
        "details": "Returns the address of the current owner."
      },
      "rate()": {
        "returns": {
          "_0": "the number of token units a buyer gets per wei."
        }
      },
      "renounceOwnership()": {
        "details": "Leaves the contract without owner. It will not be possible to call `onlyOwner` functions anymore. Can only be called by the current owner. NOTE: Renouncing ownership will leave the contract without an owner, thereby removing any functionality that is only available to the owner."
      },
      "token()": {
        "returns": {
          "_0": "the token being sold."
        }
      },
      "transferOwnership(address)": {
        "details": "Transfers ownership of the contract to a new account (`newOwner`). Can only be called by the current owner."
      },
      "wallet()": {
        "returns": {
          "_0": "the address where funds are collected."
        }
      },
      "weiRaised()": {
        "returns": {
          "_0": "the amount of wei raised."
        }
      }
    },
    "version": 1
  },
  "userdoc": {
    "events": {
      "TokensPurchased(address,address,uint256,uint256)": {
        "notice": "Event for token purchase logging"
      }
    },
    "kind": "user",
    "methods": {},
    "version": 1
  }
}